:0300000002007685
:0C007600787FE4F6D8FD75810702006871
:0E00680012008212008B12000312004480F876
:09008200D2B2D2B3D2B4D2B5223D
:1000030030B20930B30630B40320B5347F507E00DC
:1000130012004820B207120044B290801C20B3079C
:10002300120044B291801220B407120044B29280AD
:100033000820B505120044B2937F507E0012004899
:01004300229A
:09008B00D290D291D292D29322BC
:040044007F327E0089
:10004800E4FDFCC3ED9FEC9E5015E4FBFA0BBB00EE
:0F005800010AEB64724A70F50DBD00010C80E4E3
:010067002276
:00000001FF
